:1000000000F06C0052005600560056005600560094
:100010005600560056005600560056005600560030
:100020005600560056005600560056005600560020
:100030005600560056005600560056005600560010
:100040005600560056005600560056005600560000
:02005000580056
:0E00520003E9FFFF0FFECEF708ED7EF07EF80B
:10006000D801119110D83EF83EF08EF701F08A00C9
:100070000000119000F001F08C00C800050101F0B3
:10008000D40001F07C0100F0AC011FFECEF831007D
:1000900011900AF01700119028F03200FF10FEC8EE
:1000A0000CF010F020E053903191070011903DF0DA
:1000B0005000000101F0D40001F01C0101F04C01DE
:1000C00001F05C0101F06C0100E0119042F013902E
:1000D00046F08EF280A00AF092A00AF0B2A028F0BA
:1000E000F7EB01E2139224F000E2139222F0139254
:1000F00014F0119216F0D0A010F0139020F001002F
:10010000119025F05000A001119008F0119108F015
:100110000200119009F08FFE8FFE1FFE0400119067
:1001200030F00700119033F00900119034F01700FF
:10013000119035F001E0119036F0119139F017006F
:10014000119031F01200119032F01FFE0CF020F2ED
:1001500000007F015390539031901FFE0CF048F047
:1001600000E007E25390539231921FFE000011907D
:1001700041F08000FF01139044F01FFE0100119038
:100180000AF00400119030F00300119033F00900E0
:10019000119034F01700119035F001E0119036F015
:0C01A000119139F01500119031F01FFE94
:00000001FF
