:06017A00CEF805F852B0BA
:1001800005F400E611CE81E445F01F20002118702F
:10019000005104C852B046F088E005F485F066F0DE
:1001A000029049A020F881E652B054B23D903C91B3
:1001B00007F6E9C100E05EF010E05EF03FE05EF0BF
:0E01C00018E20000080101F07A0106E1FFCE0E
:020002003600C6
:1000000000F036002C00340034003400340034009A
:100010003400340034003400340034003400340040
:0C0020003400340034003400340034009C
:04002C0000F0B4012B
:1000300003E9FFFF0FFE01F054000000119000F0F3
:1000400001F05600C800050101F09E0001F04601D4
:1000500000F076011FFECEF8310011900AF0170073
:10006000119028F03200FF10FEC80CF010F020E0D4
:1000700053903191070011903DF05000000101F0C4
:100080009E0001F0E60001F0160101F0260101F0EA
:10009000360100E0119042F0139046F08EF280A0FD
:1000A0000AF092A00AF0B2A028F0F7EB01E2139256
:1000B00024F000E2139222F0139214F0119216F041
:1000C000D0A010F0139020F00100119025F0500006
:1000D000A001119008F0119108F00200119009F0B0
:1000E0008FFE8FFE1FFE0400119030F0070011906C
:1000F00033F00900119034F01700119035F001E051
:10010000119036F0119139F01700119031F0120072
:10011000119032F01FFE0CF020F200007F0153908E
:10012000539031901FFE0CF048F000E007E253902E
:10013000539231921FFE0000119041F08000FF01A8
:10014000139044F01FFE010011900AF0040011907A
:1001500030F00300119033F00900119034F01700D3
:10016000119035F001E0119036F0119139F0150041
:0A017000119031F01FFE00F0B40101
:00000001FF
