:0E12E200000108907A111FFE109000D801F054
:1012F000E212119010D8109020D8109121D81880A7
:06130000119022D8FFCE7F
:020002003600C6
:06117A00001B1D05E8E169
:10118000F715200DEFE0EF0D2015F7E1E8051D1B29
:1011900000E5E3FC181F09EBE0F3122011F2E0EB8D
:1011A000091F18FBE3E5011B1D04E7E1F815200DFD
:1011B000EEE0EF0E2014F6E1E8051D1AFFE5E3FC72
:1011C000191E08EAE0F4122010F2E0EC0A1F17FAE8
:1011D000E2E6011C1D03E7E2F8161F0CEEE0F00E3C
:1011E0002014F6E1E9061E1AFFE4E4FD191E08EAE0
:1011F000E1F4132010F1E0EC0B1F17FAE2E6021CF9
:101200001C03E7E2F9161F0CEDE0F00F2013F5E1E7
:10121000E9061E1AFEE4E4FD191E07EAE1F51320B3
:101220000FF1E0ED0B1F17F9E2E6021C1C02E6E2EB
:10123000F9171F0BEDE0F10F2013F5E1EA071E1976
:10124000FDE4E4FE1A1E06E9E1F513200FF0E0EDDF
:101250000C1F16F9E2E7031C1C02E6E2FA171F0B4B
:10126000ECE0F1102013F4E1EA081E19FDE4E4FFBC
:101270001A1E06E9E1F614200EF0E0EE0C1F16F837
:10128000E2E7031D1C01E6E2FA171F0AECE0F21088
:101290002012F4E0EA081E19FCE3E5FF1A1D05E838
:1012A000E1F614200EEFE0EE0D2015F8E1E7041D45
:1012B0001B01E5E3FB181F09EBE0F2112012F3E03C
:1012C000EB091F18FCE3E5001B1D05E8E1F71520FD
:1012D0000DEFE0EF0D2015F7E1E8051D1B00E5E33C
:0212E000FB18F9
:1000000000F036002C00340034003400340034009A
:100010003400340034003400340034003400340040
:0C0020003400340034003400340034009C
:04002C0000F0EA12E4
:1000300003E9FFFF0FFE01F054000000119000F0F3
:1000400001F05600C800050101F09E0001F04601D4
:1000500000F076011FFECEF8310011900AF0170073
:10006000119028F03200FF10FEC80CF010F020E0D4
:1000700053903191070011903DF05000000101F0C4
:100080009E0001F0E60001F0160101F0260101F0EA
:10009000360100E0119042F0139046F08EF280A0FD
:1000A0000AF092A00AF0B2A028F0F7EB01E2139256
:1000B00024F000E2139222F0139214F0119216F041
:1000C000D0A010F0139020F00100119025F0500006
:1000D000A001119008F0119108F00200119009F0B0
:1000E0008FFE8FFE1FFE0400119030F0070011906C
:1000F00033F00900119034F01700119035F001E051
:10010000119036F0119139F01700119031F0120072
:10011000119032F01FFE0CF020F200007F0153908E
:10012000539031901FFE0CF048F000E007E253902E
:10013000539231921FFE0000119041F08000FF01A8
:10014000139044F01FFE010011900AF0040011907A
:1001500030F00300119033F00900119034F01700D3
:10016000119035F001E0119036F0119139F0150041
:0A017000119031F01FFE00F0EA12BA
:00000001FF
